:100000000C942A000C943C000C943C000C943C0092
:100010000C943C000C943C000C943C000C943C0070
:100020000C943C000C943C000C943C000C943C0060
:100030000C943C000C943C000C943C000C943C0050
:100040000C943C000C943C000C943C000C943C0040
:100050000C943C0011241FBECFE5D8E0DEBFCDBF1D
:1000600020E0A0E6B0E001C01D92A136B207E1F7A2
:100070000E9453010C943C030C9400001F93CF93F7
:10008000DF9300D000D0CDB7DEB71A821982CE013F
:1000900001960E94F9001A8281E08983CE010196BF
:1000A0000E94F9001A8282E08983CE0101960E94A3
:1000B000F9001A8213E01983CE0101960E94F9001B
:1000C0001C8385E08B83CE0103960E94BE000F90B7
:1000D0000F900F900F90DF91CF911F910895CF93C4
:1000E000DF9300D000D01F92CDB7DEB71D8282E033
:1000F0008C8381E08B83BE016B5F7F4FCE010396C3
:100100000E94DD008D81882389F180916000843018
:1001100078F41A828983CE0101960E941901809198
:1001200060008F5F809360008D818130A9F01EC0D8
:1001300084508430C8F71A828983CE0101960E94C8
:10014000360180916000873019F410926000ECCF86
:100150008F5F80936000E8CFBE016B5F7F4FCE0161
:1001600003960E94DD008D818130B1F30F900F90D6
:100170000F900F900F90DF91CF910895CF93DF9361
:1001800000D01F92CDB7DEB71B82FC0121812983ED
:1001900080818A83CE0101960E945801833029F024
:1001A00091E0813019F090E001C092E0892F0F902A
:1001B0000F900F90DF91CF910895CF93DF9300D0F0
:1001C000CDB7DEB7FC012181298380818A83CE01EE
:1001D00001960E94C502833029F091E0813019F028
:1001E00090E001C092E0892F0F900F90DF91CF91A6
:1001F0000895CF93DF9300D01F92CDB7DEB721E0F3
:100200002B83FC012181298380818A83CE01019681
:100210000E945801813021F0833021F080E003C03A
:1002200081E001C082E00F900F900F90DF91CF919D
:100230000895CF93DF9300D0CDB7DEB7FC012181C5
:10024000298380818A8361E0CE0101960E94140295
:10025000813021F0833021F080E003C081E001C0D3
:1002600082E00F900F90DF91CF910895CF93DF93AD
:1002700000D0CDB7DEB7FC012181298380818A833C
:1002800060E0CE0101960E941402813021F083309B
:1002900021F080E003C081E001C082E00F900F9068
:1002A000DF91CF9108950E943E000E946F00FDCF24
:1002B000FC019081913071F138F0923009F450C016
:1002C000933009F473C096C08281813081F421811A
:1002D0002A3008F091C03AB381E090E002C0880F64
:1002E000991F2A95E2F7832B8ABB80E0089581113C
:1002F00085C021812A3008F083C03AB381E090E0C4
:1003000002C0880F991F2A95E2F7809583238ABB44
:1003100080E008958281813081F421812A3008F0C3
:1003200071C037B381E090E002C0880F991F2A9511
:10033000E2F7832B87BB80E00895811165C021819E
:100340002A3008F063C037B381E090E002C0880F24
:10035000991F2A95E2F78095832387BB80E0089553
:100360008281813081F421812A3008F051C034B378
:1003700081E090E002C0880F991F2A95E2F7832B55
:1003800084BB80E00895811145C021812A3008F0A6
:1003900043C034B381E090E002C0880F991F2A95D2
:1003A000E2F78095832384BB80E0089582818130C9
:1003B00079F421812A3090F531B381E090E002C0D8
:1003C000880F991F2A95E2F7832B81BB80E008955F
:1003D000811126C021812A3028F531B381E090E0D7
:1003E00002C0880F991F2A95E2F78095832381BB6D
:1003F00080E0089583E0089581E0089582E0089503
:1004000081E0089581E0089582E0089581E00895F3
:1004100081E0089582E0089581E0089581E00895E3
:1004200082E0089581E00895FC019081913069F1A6
:1004300038F0923009F44EC0933009F470C093C084
:1004400081818A3008F091C0613071F44BB321E0B2
:1004500030E0B90102C0660F771F8A95E2F7CB0141
:10046000842B8BBB80E00895611181C04BB321E0E8
:1004700030E0B90102C0660F771F8A95E2F7CB0121
:10048000809584238BBB80E0089581818A3008F0B9
:1004900070C0613071F448B321E030E0B90102C0AE
:1004A000660F771F8A95E2F7CB01842B88BB80E02B
:1004B0000895611160C048B321E030E0B90102C085
:1004C000660F771F8A95E2F7CB018095842388BB5E
:1004D00080E0089581818A3008F04FC0613071F466
:1004E00045B321E030E0B90102C0660F771F8A955D
:1004F000E2F7CB01842B85BB80E0089561113FC0FA
:1005000045B321E030E0B90102C0660F771F8A953C
:10051000E2F7CB018095842385BB80E0089581813B
:100520008A3078F5613071F442B321E030E0B901EE
:1005300002C0660F771F8A95E2F7CB01842B82BB3E
:1005400080E0089561111FC042B321E030E0B9019D
:1005500002C0660F771F8A95E2F7CB01809584234E
:1005600082BB80E0089583E0089581E0089584E0EF
:10057000089581E0089584E0089581E0089584E07D
:10058000089581E0089584E00895FC019081913000
:1005900001F130F09230B1F1933009F44BC062C0F8
:1005A00041814A3008F060C029B381E090E0042E18
:1005B00002C0880F991F0A94E2F730E08223932348
:1005C00002C0959587954A95E2F7FB01808380E00C
:1005D000089541814A3008F049C026B381E090E097
:1005E000042E02C0880F991F0A94E2F730E082239C
:1005F000932302C0959587954A95E2F7FB01808386
:1006000080E0089541814A3098F523B381E090E07D
:10061000042E02C0880F991F0A94E2F730E082236B
:10062000932302C0959587954A95E2F7FB01808355
:1006300080E0089541814A30E8F420B381E090E001
:10064000042E02C0880F991F0A94E2F730E082233B
:10065000932302C0959587954A95E2F7FB01808325
:1006600080E0089583E0089581E0089581E0089591
:0C06700081E0089581E00895F894FFCF28
:00000001FF
